{
  "contractName": "B",
  "abi": [
    {
      "inputs": [],
      "name": "b",
      "outputs": [
        {
          "internalType": "uint256",
          "name": "",
          "type": "uint256"
        }
      ],
      "stateMutability": "view",
      "type": "function",
      "constant": true
    },
    {
      "inputs": [
        {
          "internalType": "uint256",
          "name": "_b",
          "type": "uint256"
        }
      ],
      "name": "setB",
      "outputs": [],
      "stateMutability": "nonpayable",
      "type": "function"
    },
    {
      "inputs": [],
      "name": "square3",
      "outputs": [
        {
          "internalType": "uint256",
          "name": "",
          "type": "uint256"
        }
      ],
      "stateMutability": "view",
      "type": "function",
      "constant": true
    }
  ],
  "bytecode": "0x608060405234801561001057600080fd5b50610346806100206000396000f3fe608060405234801561001057600080fd5b50600436106100415760003560e01c806309cdcf9b1461004657806339622f0d146100625780634df7e3d014610080575b600080fd5b610060600480360381019061005b91906100ff565b61009e565b005b61006a6100a8565b604051610077919061013b565b60405180910390f35b6100886100be565b604051610095919061013b565b60405180910390f35b8060008190555050565b600060036000546100b991906102c5565b905090565b60005481565b600080fd5b6000819050919050565b6100dc816100c9565b81146100e757600080fd5b50565b6000813590506100f9816100d3565b92915050565b600060208284031215610115576101146100c4565b5b6000610123848285016100ea565b91505092915050565b610135816100c9565b82525050565b6000602082019050610150600083018461012c565b92915050565b7f4e487b7100000000000000000000000000000000000000000000000000000000600052601160045260246000fd5b60008160011c9050919050565b6000808291508390505b60018511156101dc578086048111156101b8576101b7610156565b5b60018516156101c75780820291505b80810290506101d585610185565b945061019c565b94509492505050565b6000826101f557600190506102b1565b8161020357600090506102b1565b8160018114610219576002811461022357610252565b60019150506102b1565b60ff84111561023557610234610156565b5b8360020a91508482111561024c5761024b610156565b5b506102b1565b5060208310610133831016604e8410600b84101617156102875782820a90508381111561028257610281610156565b5b6102b1565b6102948484846001610192565b925090508184048111156102ab576102aa610156565b5b81810290505b9392505050565b600060ff82169050919050565b60006102d0826100c9565b91506102db836102b8565b92506103087fffffffffffffffffffffffffffffffffffffffffffffffffffffffffffffffff84846101e5565b90509291505056fea2646970667358221220b1217b3348134f08a1e5f0f6472c588ce15b6bcc88b9b47ab90353476a71d0c164736f6c63430008110033",
  "immutableReferences": {},
  "source": "// SPDX-License-Identifier: MIT\npragma solidity >=0.4.22 <0.9.0;\n\ncontract B {\n  uint public b;\n\n  function setB(uint _b) public {\n    b=_b;\n  }\n  function square3() public view returns(uint){\n    return b**3;\n  }\n}\n",
  "sourcePath": "/Users/ohseungik/Desktop//truffle_2/contracts/B.sol",
  "compiler": {
    "name": "solc",
    "version": "0.8.17+commit.8df45f5f.Emscripten.clang"
  },
  "schemaVersion": "3.4.10",
  "updatedAt": "2022-12-14T05:27:31.204Z",
  "networkType": "ethereum",
  "devdoc": {
    "kind": "dev",
    "methods": {},
    "version": 1
  },
  "userdoc": {
    "kind": "user",
    "methods": {},
    "version": 1
  }
}