{
  "contractName": "C",
  "abi": [
    {
      "inputs": [
        {
          "internalType": "uint256",
          "name": "",
          "type": "uint256"
        }
      ],
      "name": "multiples11",
      "outputs": [
        {
          "internalType": "uint256",
          "name": "",
          "type": "uint256"
        }
      ],
      "stateMutability": "view",
      "type": "function",
      "constant": true
    },
    {
      "inputs": [
        {
          "internalType": "uint256",
          "name": "",
          "type": "uint256"
        }
      ],
      "name": "multiples5",
      "outputs": [
        {
          "internalType": "uint256",
          "name": "",
          "type": "uint256"
        }
      ],
      "stateMutability": "view",
      "type": "function",
      "constant": true
    },
    {
      "inputs": [
        {
          "internalType": "uint256",
          "name": "",
          "type": "uint256"
        }
      ],
      "name": "multiples9",
      "outputs": [
        {
          "internalType": "uint256",
          "name": "",
          "type": "uint256"
        }
      ],
      "stateMutability": "view",
      "type": "function",
      "constant": true
    },
    {
      "inputs": [
        {
          "internalType": "uint256",
          "name": "_num",
          "type": "uint256"
        }
      ],
      "name": "judge5",
      "outputs": [],
      "stateMutability": "nonpayable",
      "type": "function"
    },
    {
      "inputs": [
        {
          "internalType": "uint256",
          "name": "_num",
          "type": "uint256"
        }
      ],
      "name": "judge9",
      "outputs": [],
      "stateMutability": "nonpayable",
      "type": "function"
    },
    {
      "inputs": [
        {
          "internalType": "uint256",
          "name": "_num",
          "type": "uint256"
        }
      ],
      "name": "judge11",
      "outputs": [],
      "stateMutability": "nonpayable",
      "type": "function"
    }
  ],
  "bytecode": "0x608060405234801561001057600080fd5b506103d8806100206000396000f3fe608060405234801561001057600080fd5b50600436106100625760003560e01c8063678017f0146100675780637ea0a26b146100835780639705a4c01461009f578063c76cb085146100cf578063d2fae20f146100eb578063df1887ad1461011b575b600080fd5b610081600480360381019061007c91906102e8565b61014b565b005b61009d600480360381019061009891906102e8565b61019d565b005b6100b960048036038101906100b491906102e8565b6101ef565b6040516100c69190610324565b60405180910390f35b6100e960048036038101906100e491906102e8565b610213565b005b610105600480360381019061010091906102e8565b610265565b6040516101129190610324565b60405180910390f35b610135600480360381019061013091906102e8565b610289565b6040516101429190610324565b60405180910390f35b5b6009811061016857600981610161919061036e565b905061014c565b6000810361019a5760018190806001815401808255809150506001900390600052602060002001600090919091909150555b50565b5b600b81106101ba57600b816101b3919061036e565b905061019e565b600081036101ec5760028190806001815401808255809150506001900390600052602060002001600090919091909150555b50565b600181815481106101ff57600080fd5b906000526020600020016000915090505481565b5b6005811061023057600581610229919061036e565b9050610214565b600081036102625760008190806001815401808255809150506001900390600052602060002001600090919091909150555b50565b6002818154811061027557600080fd5b906000526020600020016000915090505481565b6000818154811061029957600080fd5b906000526020600020016000915090505481565b600080fd5b6000819050919050565b6102c5816102b2565b81146102d057600080fd5b50565b6000813590506102e2816102bc565b92915050565b6000602082840312156102fe576102fd6102ad565b5b600061030c848285016102d3565b91505092915050565b61031e816102b2565b82525050565b60006020820190506103396000830184610315565b92915050565b7f4e487b7100000000000000000000000000000000000000000000000000000000600052601160045260246000fd5b6000610379826102b2565b9150610384836102b2565b925082820390508181111561039c5761039b61033f565b5b9291505056fea2646970667358221220db174c73ec32452685c16f2a7da1c2733f5004296246252cc4aa53a55b3c0aae64736f6c63430008110033",
  "immutableReferences": {},
  "source": "// SPDX-License-Identifier: MIT\npragma solidity >=0.4.22 <0.9.0;\n\ncontract C {\n  uint[] public multiples5;\n  uint[] public multiples9;\n  uint[] public multiples11;\n\n  function judge5(uint _num) public {\n    while(_num >= 5){\n      _num -= 5;\n    }\n\n    if(_num == 0){\n      multiples5.push(_num);\n    }\n  }\n  function judge9(uint _num) public {\n    while(_num >= 9){\n      _num -= 9;\n    }\n\n    if(_num == 0){\n      multiples9.push(_num);\n    }\n  }\n  function judge11(uint _num) public {\n    while(_num >= 11){\n      _num -= 11;\n    }\n\n    if(_num == 0){\n      multiples11.push(_num);\n    }\n  }\n}\n",
  "sourcePath": "/Users/ohseungik/Desktop/박민서/truffle_2/contracts/C.sol",
  "compiler": {
    "name": "solc",
    "version": "0.8.17+commit.8df45f5f.Emscripten.clang"
  },
  "schemaVersion": "3.4.10",
  "updatedAt": "2022-12-14T05:27:30.827Z",
  "networkType": "ethereum",
  "devdoc": {
    "kind": "dev",
    "methods": {},
    "version": 1
  },
  "userdoc": {
    "kind": "user",
    "methods": {},
    "version": 1
  }
}