{
  "contractName": "D",
  "abi": [
    {
      "inputs": [
        {
          "internalType": "address",
          "name": "_aAddr",
          "type": "address"
        },
        {
          "internalType": "address",
          "name": "_bAddr",
          "type": "address"
        }
      ],
      "stateMutability": "nonpayable",
      "type": "constructor"
    },
    {
      "inputs": [],
      "name": "aCont",
      "outputs": [
        {
          "internalType": "contract A",
          "name": "",
          "type": "address"
        }
      ],
      "stateMutability": "view",
      "type": "function",
      "constant": true
    },
    {
      "inputs": [],
      "name": "bCont",
      "outputs": [
        {
          "internalType": "contract B",
          "name": "",
          "type": "address"
        }
      ],
      "stateMutability": "view",
      "type": "function",
      "constant": true
    },
    {
      "inputs": [],
      "name": "getAddedAB",
      "outputs": [
        {
          "internalType": "uint256",
          "name": "",
          "type": "uint256"
        }
      ],
      "stateMutability": "view",
      "type": "function",
      "constant": true
    }
  ],
  "bytecode": "0x608060405234801561001057600080fd5b506040516105883803806105888339818101604052810190610032919061011d565b816000806101000a81548173ffffffffffffffffffffffffffffffffffffffff021916908373ffffffffffffffffffffffffffffffffffffffff16021790555080600160006101000a81548173ffffffffffffffffffffffffffffffffffffffff021916908373ffffffffffffffffffffffffffffffffffffffff160217905550505061015d565b600080fd5b600073ffffffffffffffffffffffffffffffffffffffff82169050919050565b60006100ea826100bf565b9050919050565b6100fa816100df565b811461010557600080fd5b50565b600081519050610117816100f1565b92915050565b60008060408385031215610134576101336100ba565b5b600061014285828601610108565b925050602061015385828601610108565b9150509250929050565b61041c8061016c6000396000f3fe608060405234801561001057600080fd5b50600436106100415760003560e01c8063182778b51461004657806382e0aff8146100645780638993050b14610082575b600080fd5b61004e6100a0565b60405161005b9190610234565b60405180910390f35b61006c6101d1565b60405161007991906102ce565b60405180910390f35b61008a6101f5565b604051610097919061030a565b60405180910390f35b6000600160009054906101000a900473ffffffffffffffffffffffffffffffffffffffff1673ffffffffffffffffffffffffffffffffffffffff16634df7e3d06040518163ffffffff1660e01b8152600401602060405180830381865afa15801561010f573d6000803e3d6000fd5b505050506040513d601f19601f820116820180604052508101906101339190610356565b60008054906101000a900473ffffffffffffffffffffffffffffffffffffffff1673ffffffffffffffffffffffffffffffffffffffff16630dbe671f6040518163ffffffff1660e01b8152600401602060405180830381865afa15801561019e573d6000803e3d6000fd5b505050506040513d601f19601f820116820180604052508101906101c29190610356565b6101cc91906103b2565b905090565b60008054906101000a900473ffffffffffffffffffffffffffffffffffffffff1681565b600160009054906101000a900473ffffffffffffffffffffffffffffffffffffffff1681565b6000819050919050565b61022e8161021b565b82525050565b60006020820190506102496000830184610225565b92915050565b600073ffffffffffffffffffffffffffffffffffffffff82169050919050565b6000819050919050565b600061029461028f61028a8461024f565b61026f565b61024f565b9050919050565b60006102a682610279565b9050919050565b60006102b88261029b565b9050919050565b6102c8816102ad565b82525050565b60006020820190506102e360008301846102bf565b92915050565b60006102f48261029b565b9050919050565b610304816102e9565b82525050565b600060208201905061031f60008301846102fb565b92915050565b600080fd5b6103338161021b565b811461033e57600080fd5b50565b6000815190506103508161032a565b92915050565b60006020828403121561036c5761036b610325565b5b600061037a84828501610341565b91505092915050565b7f4e487b7100000000000000000000000000000000000000000000000000000000600052601160045260246000fd5b60006103bd8261021b565b91506103c88361021b565b92508282019050808211156103e0576103df610383565b5b9291505056fea2646970667358221220caf5820d25be8d568a67b098e8628536e004514cb0e148c4c97d300a9696c45b64736f6c63430008110033",
  "immutableReferences": {},
  "source": "// SPDX-License-Identifier: MIT\npragma solidity >=0.4.22 <0.9.0;\n\nimport \"./A.sol\";\nimport \"./B.sol\";\n\ncontract D {\n  A public aCont;\n  B public bCont;\n\n  constructor(address _aAddr, address _bAddr) {\n    aCont = A(_aAddr);\n    bCont = B(_bAddr);\n  }\n  \n  function getAddedAB() public view returns(uint){\n    return aCont.a() + bCont.b();\n  }\n}\n",
  "sourcePath": "/Users/ohseungik/Desktop//truffle_2/contracts/D.sol",
  "compiler": {
    "name": "solc",
    "version": "0.8.17+commit.8df45f5f.Emscripten.clang"
  },
  "schemaVersion": "3.4.10",
  "updatedAt": "2022-12-14T05:27:31.199Z",
  "networkType": "ethereum",
  "devdoc": {
    "kind": "dev",
    "methods": {},
    "version": 1
  },
  "userdoc": {
    "kind": "user",
    "methods": {},
    "version": 1
  }
}